{
    "contractName": "SingleSwapToken",
    "abi": [
        {
            "inputs": [],
            "name": "DAI",
            "outputs": [
                {
                    "internalType": "address",
                    "name": "",
                    "type": "address"
                }
            ],
            "stateMutability": "view",
            "type": "function"
        },
        {
            "inputs": [
                {
                    "internalType": "uint256",
                    "name": "amountIn",
                    "type": "uint256"
                }
            ],
            "name": "SwapExactInputString",
            "outputs": [
                {
                    "internalType": "uint256",
                    "name": "amountOut",
                    "type": "uint256"
                }
            ],
            "stateMutability": "nonpayable",
            "type": "function"
        },
        {
            "inputs": [],
            "name": "USDC",
            "outputs": [
                {
                    "internalType": "address",
                    "name": "",
                    "type": "address"
                }
            ],
            "stateMutability": "view",
            "type": "function"
        },
        {
            "inputs": [],
            "name": "WETH9",
            "outputs": [
                {
                    "internalType": "address",
                    "name": "",
                    "type": "address"
                }
            ],
            "stateMutability": "view",
            "type": "function"
        },
        {
            "inputs": [],
            "name": "swapRouter",
            "outputs": [
                {
                    "internalType": "contract ISwapRouter",
                    "name": "",
                    "type": "address"
                }
            ],
            "stateMutability": "view",
            "type": "function"
        }
    ],
    "bytecode": "608060405234801561001057600080fd5b5061050a806100206000396000f3fe608060405234801561001057600080fd5b50600436106100575760003560e01c80634aa4a4fc1461005c57806368a173851461009457806389a302711461005c578063c31c9c07146100b5578063e0bab4c41461005c575b600080fd5b610077732bcae8205a77dabb2479cf2c85ded7d963101b8681565b6040516001600160a01b0390911681526020015b60405180910390f35b6100a76100a2366004610451565b6100d0565b60405190815260200161008b565b61007773e592427a0aece92de3edee1f18e0157c0586156481565b60006100f2732bcae8205a77dabb2479cf2c85ded7d963101b86333085610242565b610125732bcae8205a77dabb2479cf2c85ded7d963101b8673e592427a0aece92de3edee1f18e0157c0586156484610351565b6040805161010081018252732bcae8205a77dabb2479cf2c85ded7d963101b8680825260208201908152610bb88284019081523360608401908152426080850190815260a08501888152600060c0870181815260e08801918252975163414bf38960e01b815287516001600160a01b039081166004830152965187166024820152945162ffffff166044860152925185166064850152905160848401525160a4830152935160c482015292511660e48301529073e592427a0aece92de3edee1f18e0157c058615649063414bf38990610104016020604051808303816000875af1158015610217573d6000803e3d6000fd5b505050506040513d601f19601f8201168201806040525081019061023b919061046a565b9392505050565b604080516001600160a01b0385811660248301528481166044830152606480830185905283518084039091018152608490920183526020820180516001600160e01b03166323b872dd60e01b17905291516000928392908816916102a69190610483565b6000604051808303816000865af19150503d80600081146102e3576040519150601f19603f3d011682016040523d82523d6000602084013e6102e8565b606091505b509150915081801561031257508051158061031257508080602001905181019061031291906104b2565b6103495760405162461bcd60e51b815260206004820152600360248201526229aa2360e91b60448201526064015b60405180910390fd5b505050505050565b604080516001600160a01b038481166024830152604480830185905283518084039091018152606490920183526020820180516001600160e01b031663095ea7b360e01b17905291516000928392908716916103ad9190610483565b6000604051808303816000865af19150503d80600081146103ea576040519150601f19603f3d011682016040523d82523d6000602084013e6103ef565b606091505b509150915081801561041957508051158061041957508080602001905181019061041991906104b2565b61044a5760405162461bcd60e51b8152602060048201526002602482015261534160f01b6044820152606401610340565b5050505050565b60006020828403121561046357600080fd5b5035919050565b60006020828403121561047c57600080fd5b5051919050565b6000825160005b818110156104a4576020818601810151858301520161048a565b506000920191825250919050565b6000602082840312156104c457600080fd5b8151801515811461023b57600080fdfea26469706673582212207988937e3ffeeabe4f92614ceb7ab997f56bc43796ca2af89698db653fc9896e64736f6c63430008130033",
    "sourcePath": "c:/Users/DUNITECHi5/Desktop/clone/contracts/SwapToken.sol",
    "compiler": {
        "name": "solc",
        "version": "0.8.19+commit.7dd6d404"
    },
    "functionHashes": {
        "DAI()": "e0bab4c4",
        "SwapExactInputString(uint256)": "68a17385",
        "USDC()": "89a30271",
        "WETH9()": "4aa4a4fc",
        "swapRouter()": "c31c9c07"
    },
    "gasEstimates": {
        "creation": {
            "codeDepositCost": "258000",
            "executionCost": "300",
            "totalCost": "258300"
        },
        "external": {
            "DAI()": "271",
            "SwapExactInputString(uint256)": "infinite",
            "USDC()": "227",
            "WETH9()": "183",
            "swapRouter()": "249"
        }
    }
}