{
  "_format": "hh-sol-artifact-1",
  "contractName": "SingleSwapToken",
  "sourceName": "contracts/SwapToken.sol",
  "abi": [
    {
      "inputs": [],
      "name": "DAI",
      "outputs": [
        {
          "internalType": "address",
          "name": "",
          "type": "address"
        }
      ],
      "stateMutability": "view",
      "type": "function"
    },
    {
      "inputs": [
        {
          "internalType": "uint256",
          "name": "amountIn",
          "type": "uint256"
        }
      ],
      "name": "SwapExactInputString",
      "outputs": [
        {
          "internalType": "uint256",
          "name": "amountOut",
          "type": "uint256"
        }
      ],
      "stateMutability": "nonpayable",
      "type": "function"
    },
    {
      "inputs": [
        {
          "internalType": "uint256",
          "name": "amountOut",
          "type": "uint256"
        },
        {
          "internalType": "uint256",
          "name": "amountInMaximum",
          "type": "uint256"
        }
      ],
      "name": "SwapExactOutString",
      "outputs": [
        {
          "internalType": "uint256",
          "name": "amountIn",
          "type": "uint256"
        }
      ],
      "stateMutability": "nonpayable",
      "type": "function"
    },
    {
      "inputs": [],
      "name": "USDC",
      "outputs": [
        {
          "internalType": "address",
          "name": "",
          "type": "address"
        }
      ],
      "stateMutability": "view",
      "type": "function"
    },
    {
      "inputs": [],
      "name": "WETH9",
      "outputs": [
        {
          "internalType": "address",
          "name": "",
          "type": "address"
        }
      ],
      "stateMutability": "view",
      "type": "function"
    },
    {
      "inputs": [],
      "name": "swapRouter",
      "outputs": [
        {
          "internalType": "contract ISwapRouter",
          "name": "",
          "type": "address"
        }
      ],
      "stateMutability": "view",
      "type": "function"
    }
  ],
  "bytecode": "0x608060405234801561001057600080fd5b50611048806100206000396000f3fe608060405234801561001057600080fd5b50600436106100625760003560e01c806311f3c1cb146100675780634aa4a4fc1461009757806368a17385146100b557806389a30271146100e5578063c31c9c0714610103578063e0bab4c414610121575b600080fd5b610081600480360381019061007c9190610997565b61013f565b60405161008e91906109e6565b60405180910390f35b61009f610346565b6040516100ac9190610a42565b60405180910390f35b6100cf60048036038101906100ca9190610a5d565b61035e565b6040516100dc91906109e6565b60405180910390f35b6100ed610512565b6040516100fa9190610a42565b60405180910390f35b61010b61052a565b6040516101189190610ae9565b60405180910390f35b610129610542565b6040516101369190610a42565b60405180910390f35b600061016173ef1dacbce5194c668bee55f2ca599f366709db0c33308561055a565b61018073ef1dacbce5194c668bee55f2ca599f366709db0c30846106b2565b600060405180610100016040528073ef1dacbce5194c668bee55f2ca599f366709db0c73ffffffffffffffffffffffffffffffffffffffff168152602001732bcae8205a77dabb2479cf2c85ded7d963101b8673ffffffffffffffffffffffffffffffffffffffff168152602001610bb862ffffff1681526020013373ffffffffffffffffffffffffffffffffffffffff168152602001428152602001858152602001848152602001600073ffffffffffffffffffffffffffffffffffffffff16815250905073e592427a0aece92de3edee1f18e0157c0586156473ffffffffffffffffffffffffffffffffffffffff1663db3e2198826040518263ffffffff1660e01b81526004016102939190610bf1565b6020604051808303816000875af11580156102b2573d6000803e3d6000fd5b505050506040513d601f19601f820116820180604052508101906102d69190610c22565b91508282101561033f5761031473ef1dacbce5194c668bee55f2ca599f366709db0c73e592427a0aece92de3edee1f18e0157c0586156460006106b2565b61033e73ef1dacbce5194c668bee55f2ca599f366709db0c3384866103399190610c7e565b610807565b5b5092915050565b73ef1dacbce5194c668bee55f2ca599f366709db0c81565b600061038073ef1dacbce5194c668bee55f2ca599f366709db0c33308561055a565b6103b373ef1dacbce5194c668bee55f2ca599f366709db0c73e592427a0aece92de3edee1f18e0157c05861564846106b2565b600060405180610100016040528073ef1dacbce5194c668bee55f2ca599f366709db0c73ffffffffffffffffffffffffffffffffffffffff168152602001732bcae8205a77dabb2479cf2c85ded7d963101b8673ffffffffffffffffffffffffffffffffffffffff168152602001610bb862ffffff1681526020013373ffffffffffffffffffffffffffffffffffffffff16815260200142815260200184815260200160008152602001600073ffffffffffffffffffffffffffffffffffffffff16815250905073e592427a0aece92de3edee1f18e0157c0586156473ffffffffffffffffffffffffffffffffffffffff1663414bf389826040518263ffffffff1660e01b81526004016104c79190610d54565b6020604051808303816000875af11580156104e6573d6000803e3d6000fd5b505050506040513d601f19601f8201168201806040525081019061050a9190610c22565b915050919050565b73a0b86991c6218b36c1d19d4a2e9eb0ce3606eb4881565b73e592427a0aece92de3edee1f18e0157c0586156481565b732bcae8205a77dabb2479cf2c85ded7d963101b8681565b6000808573ffffffffffffffffffffffffffffffffffffffff166323b872dd60e01b86868660405160240161059193929190610d70565b604051602081830303815290604052907bffffffffffffffffffffffffffffffffffffffffffffffffffffffff19166020820180517bffffffffffffffffffffffffffffffffffffffffffffffffffffffff83818316178352505050506040516105fb9190610e18565b6000604051808303816000865af19150503d8060008114610638576040519150601f19603f3d011682016040523d82523d6000602084013e61063d565b606091505b509150915081801561066b575060008151148061066a5750808060200190518101906106699190610e67565b5b5b6106aa576040517f08c379a00000000000000000000000000000000000000000000000000000000081526004016106a190610ef1565b60405180910390fd5b505050505050565b6000808473ffffffffffffffffffffffffffffffffffffffff1663095ea7b360e01b85856040516024016106e7929190610f11565b604051602081830303815290604052907bffffffffffffffffffffffffffffffffffffffffffffffffffffffff19166020820180517bffffffffffffffffffffffffffffffffffffffffffffffffffffffff83818316178352505050506040516107519190610e18565b6000604051808303816000865af19150503d806000811461078e576040519150601f19603f3d011682016040523d82523d6000602084013e610793565b606091505b50915091508180156107c157506000815114806107c05750808060200190518101906107bf9190610e67565b5b5b610800576040517f08c379a00000000000000000000000000000000000000000000000000000000081526004016107f790610f86565b60405180910390fd5b5050505050565b6000808473ffffffffffffffffffffffffffffffffffffffff1663a9059cbb60e01b858560405160240161083c929190610f11565b604051602081830303815290604052907bffffffffffffffffffffffffffffffffffffffffffffffffffffffff19166020820180517bffffffffffffffffffffffffffffffffffffffffffffffffffffffff83818316178352505050506040516108a69190610e18565b6000604051808303816000865af19150503d80600081146108e3576040519150601f19603f3d011682016040523d82523d6000602084013e6108e8565b606091505b509150915081801561091657506000815114806109155750808060200190518101906109149190610e67565b5b5b610955576040517f08c379a000000000000000000000000000000000000000000000000000000000815260040161094c90610ff2565b60405180910390fd5b5050505050565b600080fd5b6000819050919050565b61097481610961565b811461097f57600080fd5b50565b6000813590506109918161096b565b92915050565b600080604083850312156109ae576109ad61095c565b5b60006109bc85828601610982565b92505060206109cd85828601610982565b9150509250929050565b6109e081610961565b82525050565b60006020820190506109fb60008301846109d7565b92915050565b600073ffffffffffffffffffffffffffffffffffffffff82169050919050565b6000610a2c82610a01565b9050919050565b610a3c81610a21565b82525050565b6000602082019050610a576000830184610a33565b92915050565b600060208284031215610a7357610a7261095c565b5b6000610a8184828501610982565b91505092915050565b6000819050919050565b6000610aaf610aaa610aa584610a01565b610a8a565b610a01565b9050919050565b6000610ac182610a94565b9050919050565b6000610ad382610ab6565b9050919050565b610ae381610ac8565b82525050565b6000602082019050610afe6000830184610ada565b92915050565b610b0d81610a21565b82525050565b600062ffffff82169050919050565b610b2b81610b13565b82525050565b610b3a81610961565b82525050565b610b4981610a01565b82525050565b61010082016000820151610b666000850182610b04565b506020820151610b796020850182610b04565b506040820151610b8c6040850182610b22565b506060820151610b9f6060850182610b04565b506080820151610bb26080850182610b31565b5060a0820151610bc560a0850182610b31565b5060c0820151610bd860c0850182610b31565b5060e0820151610beb60e0850182610b40565b50505050565b600061010082019050610c076000830184610b4f565b92915050565b600081519050610c1c8161096b565b92915050565b600060208284031215610c3857610c3761095c565b5b6000610c4684828501610c0d565b91505092915050565b7f4e487b7100000000000000000000000000000000000000000000000000000000600052601160045260246000fd5b6000610c8982610961565b9150610c9483610961565b9250828203905081811115610cac57610cab610c4f565b5b92915050565b61010082016000820151610cc96000850182610b04565b506020820151610cdc6020850182610b04565b506040820151610cef6040850182610b22565b506060820151610d026060850182610b04565b506080820151610d156080850182610b31565b5060a0820151610d2860a0850182610b31565b5060c0820151610d3b60c0850182610b31565b5060e0820151610d4e60e0850182610b40565b50505050565b600061010082019050610d6a6000830184610cb2565b92915050565b6000606082019050610d856000830186610a33565b610d926020830185610a33565b610d9f60408301846109d7565b949350505050565b600081519050919050565b600081905092915050565b60005b83811015610ddb578082015181840152602081019050610dc0565b60008484015250505050565b6000610df282610da7565b610dfc8185610db2565b9350610e0c818560208601610dbd565b80840191505092915050565b6000610e248284610de7565b915081905092915050565b60008115159050919050565b610e4481610e2f565b8114610e4f57600080fd5b50565b600081519050610e6181610e3b565b92915050565b600060208284031215610e7d57610e7c61095c565b5b6000610e8b84828501610e52565b91505092915050565b600082825260208201905092915050565b7f5354460000000000000000000000000000000000000000000000000000000000600082015250565b6000610edb600383610e94565b9150610ee682610ea5565b602082019050919050565b60006020820190508181036000830152610f0a81610ece565b9050919050565b6000604082019050610f266000830185610a33565b610f3360208301846109d7565b9392505050565b7f5341000000000000000000000000000000000000000000000000000000000000600082015250565b6000610f70600283610e94565b9150610f7b82610f3a565b602082019050919050565b60006020820190508181036000830152610f9f81610f63565b9050919050565b7f5354000000000000000000000000000000000000000000000000000000000000600082015250565b6000610fdc600283610e94565b9150610fe782610fa6565b602082019050919050565b6000602082019050818103600083015261100b81610fcf565b905091905056fea264697066735822122016e4b68af38d604d5656c3e60ee4b4c8f79d6af093aaf0ac133e12fe0d18616064736f6c63430008130033",
  "linkReferences": {},
  "deployedLinkReferences": {}
}