{
  "_format": "hh-sol-artifact-1",
  "contractName": "SwapMultiHop",
  "sourceName": "contracts/SwapMultiHop.sol",
  "abi": [
    {
      "inputs": [],
      "name": "DAI",
      "outputs": [
        {
          "internalType": "address",
          "name": "",
          "type": "address"
        }
      ],
      "stateMutability": "view",
      "type": "function"
    },
    {
      "inputs": [],
      "name": "USDC",
      "outputs": [
        {
          "internalType": "address",
          "name": "",
          "type": "address"
        }
      ],
      "stateMutability": "view",
      "type": "function"
    },
    {
      "inputs": [],
      "name": "WETH9",
      "outputs": [
        {
          "internalType": "address",
          "name": "",
          "type": "address"
        }
      ],
      "stateMutability": "view",
      "type": "function"
    },
    {
      "inputs": [
        {
          "internalType": "uint256",
          "name": "amountIn",
          "type": "uint256"
        }
      ],
      "name": "swapExactMultihop",
      "outputs": [
        {
          "internalType": "uint256",
          "name": "amountOut",
          "type": "uint256"
        }
      ],
      "stateMutability": "nonpayable",
      "type": "function"
    },
    {
      "inputs": [
        {
          "internalType": "uint256",
          "name": "amountOut",
          "type": "uint256"
        },
        {
          "internalType": "uint256",
          "name": "amountInMaximum",
          "type": "uint256"
        }
      ],
      "name": "swapExactOutputMultihop",
      "outputs": [
        {
          "internalType": "uint256",
          "name": "amountIn",
          "type": "uint256"
        }
      ],
      "stateMutability": "nonpayable",
      "type": "function"
    },
    {
      "inputs": [],
      "name": "swapRouter",
      "outputs": [
        {
          "internalType": "contract ISwapRouter",
          "name": "",
          "type": "address"
        }
      ],
      "stateMutability": "view",
      "type": "function"
    }
  ],
  "bytecode": "0x608060405234801561001057600080fd5b50610fac806100206000396000f3fe608060405234801561001057600080fd5b50600436106100625760003560e01c8063237420d3146100675780633b85cf6a146100975780634aa4a4fc146100c757806389a30271146100e5578063c31c9c0714610103578063e0bab4c414610121575b600080fd5b610081600480360381019061007c9190610819565b61013f565b60405161008e9190610855565b60405180910390f35b6100b160048036038101906100ac9190610870565b6102d4565b6040516100be9190610855565b60405180910390f35b6100cf6104d1565b6040516100dc91906108f1565b60405180910390f35b6100ed6104e9565b6040516100fa91906108f1565b60405180910390f35b61010b610501565b604051610118919061096b565b60405180910390f35b610129610519565b60405161013691906108f1565b60405180910390f35b600061017573ef1dacbce5194c668bee55f2ca599f366709db0c3373e592427a0aece92de3edee1f18e0157c0586156485610531565b61019473ef1dacbce5194c668bee55f2ca599f366709db0c3384610689565b60006040518060a0016040528073ef1dacbce5194c668bee55f2ca599f366709db0c610bb873a0b86991c6218b36c1d19d4a2e9eb0ce3606eb486064732bcae8205a77dabb2479cf2c85ded7d963101b866040516020016101f9959493929190610a34565b60405160208183030381529060405281526020013373ffffffffffffffffffffffffffffffffffffffff1681526020014281526020018481526020016000815250905073e592427a0aece92de3edee1f18e0157c0586156473ffffffffffffffffffffffffffffffffffffffff1663c04b8d59826040518263ffffffff1660e01b81526004016102899190610bb7565b6020604051808303816000875af11580156102a8573d6000803e3d6000fd5b505050506040513d601f19601f820116820180604052508101906102cc9190610bee565b915050919050565b600061030a73ef1dacbce5194c668bee55f2ca599f366709db0c3373e592427a0aece92de3edee1f18e0157c0586156485610531565b61032973ef1dacbce5194c668bee55f2ca599f366709db0c3384610689565b60006040518060a00160405280732bcae8205a77dabb2479cf2c85ded7d963101b86606473a0b86991c6218b36c1d19d4a2e9eb0ce3606eb48610bb873ef1dacbce5194c668bee55f2ca599f366709db0c60405160200161038e959493929190610c1b565b60405160208183030381529060405281526020013373ffffffffffffffffffffffffffffffffffffffff16815260200142815260200185815260200184815250905073e592427a0aece92de3edee1f18e0157c0586156473ffffffffffffffffffffffffffffffffffffffff1663f28c0498826040518263ffffffff1660e01b815260040161041d9190610cf0565b6020604051808303816000875af115801561043c573d6000803e3d6000fd5b505050506040513d601f19601f820116820180604052508101906104609190610bee565b9150828210156104ca5761049e73ef1dacbce5194c668bee55f2ca599f366709db0c73e592427a0aece92de3edee1f18e0157c058615646000610689565b6104c973ef1dacbce5194c668bee55f2ca599f366709db0c303385876104c49190610d41565b610531565b5b5092915050565b73ef1dacbce5194c668bee55f2ca599f366709db0c81565b73a0b86991c6218b36c1d19d4a2e9eb0ce3606eb4881565b73e592427a0aece92de3edee1f18e0157c0586156481565b732bcae8205a77dabb2479cf2c85ded7d963101b8681565b6000808573ffffffffffffffffffffffffffffffffffffffff166323b872dd60e01b86868660405160240161056893929190610d75565b604051602081830303815290604052907bffffffffffffffffffffffffffffffffffffffffffffffffffffffff19166020820180517bffffffffffffffffffffffffffffffffffffffffffffffffffffffff83818316178352505050506040516105d29190610de8565b6000604051808303816000865af19150503d806000811461060f576040519150601f19603f3d011682016040523d82523d6000602084013e610614565b606091505b509150915081801561064257506000815114806106415750808060200190518101906106409190610e37565b5b5b610681576040517f08c379a000000000000000000000000000000000000000000000000000000000815260040161067890610ec1565b60405180910390fd5b505050505050565b6000808473ffffffffffffffffffffffffffffffffffffffff1663095ea7b360e01b85856040516024016106be929190610ee1565b604051602081830303815290604052907bffffffffffffffffffffffffffffffffffffffffffffffffffffffff19166020820180517bffffffffffffffffffffffffffffffffffffffffffffffffffffffff83818316178352505050506040516107289190610de8565b6000604051808303816000865af19150503d8060008114610765576040519150601f19603f3d011682016040523d82523d6000602084013e61076a565b606091505b509150915081801561079857506000815114806107975750808060200190518101906107969190610e37565b5b5b6107d7576040517f08c379a00000000000000000000000000000000000000000000000000000000081526004016107ce90610f56565b60405180910390fd5b5050505050565b600080fd5b6000819050919050565b6107f6816107e3565b811461080157600080fd5b50565b600081359050610813816107ed565b92915050565b60006020828403121561082f5761082e6107de565b5b600061083d84828501610804565b91505092915050565b61084f816107e3565b82525050565b600060208201905061086a6000830184610846565b92915050565b60008060408385031215610887576108866107de565b5b600061089585828601610804565b92505060206108a685828601610804565b9150509250929050565b600073ffffffffffffffffffffffffffffffffffffffff82169050919050565b60006108db826108b0565b9050919050565b6108eb816108d0565b82525050565b600060208201905061090660008301846108e2565b92915050565b6000819050919050565b600061093161092c610927846108b0565b61090c565b6108b0565b9050919050565b600061094382610916565b9050919050565b600061095582610938565b9050919050565b6109658161094a565b82525050565b6000602082019050610980600083018461095c565b92915050565b60008160601b9050919050565b600061099e82610986565b9050919050565b60006109b082610993565b9050919050565b6109c86109c3826108d0565b6109a5565b82525050565b600062ffffff82169050919050565b60008160e81b9050919050565b60006109f5826109dd565b9050919050565b610a0d610a08826109ce565b6109ea565b82525050565b6000819050919050565b610a2e610a29826107e3565b610a13565b82525050565b6000610a4082886109b7565b601482019150610a5082876109fc565b600382019150610a6082866109b7565b601482019150610a708285610a1d565b602082019150610a8082846109b7565b6014820191508190509695505050505050565b600081519050919050565b600082825260208201905092915050565b60005b83811015610acd578082015181840152602081019050610ab2565b60008484015250505050565b6000601f19601f8301169050919050565b6000610af582610a93565b610aff8185610a9e565b9350610b0f818560208601610aaf565b610b1881610ad9565b840191505092915050565b610b2c816108d0565b82525050565b610b3b816107e3565b82525050565b600060a0830160008301518482036000860152610b5e8282610aea565b9150506020830151610b736020860182610b23565b506040830151610b866040860182610b32565b506060830151610b996060860182610b32565b506080830151610bac6080860182610b32565b508091505092915050565b60006020820190508181036000830152610bd18184610b41565b905092915050565b600081519050610be8816107ed565b92915050565b600060208284031215610c0457610c036107de565b5b6000610c1284828501610bd9565b91505092915050565b6000610c2782886109b7565b601482019150610c3782876109fc565b600382019150610c4782866109b7565b601482019150610c5782856109fc565b600382019150610c6782846109b7565b6014820191508190509695505050505050565b600060a0830160008301518482036000860152610c978282610aea565b9150506020830151610cac6020860182610b23565b506040830151610cbf6040860182610b32565b506060830151610cd26060860182610b32565b506080830151610ce56080860182610b32565b508091505092915050565b60006020820190508181036000830152610d0a8184610c7a565b905092915050565b7f4e487b7100000000000000000000000000000000000000000000000000000000600052601160045260246000fd5b6000610d4c826107e3565b9150610d57836107e3565b9250828203905081811115610d6f57610d6e610d12565b5b92915050565b6000606082019050610d8a60008301866108e2565b610d9760208301856108e2565b610da46040830184610846565b949350505050565b600081905092915050565b6000610dc282610a93565b610dcc8185610dac565b9350610ddc818560208601610aaf565b80840191505092915050565b6000610df48284610db7565b915081905092915050565b60008115159050919050565b610e1481610dff565b8114610e1f57600080fd5b50565b600081519050610e3181610e0b565b92915050565b600060208284031215610e4d57610e4c6107de565b5b6000610e5b84828501610e22565b91505092915050565b600082825260208201905092915050565b7f5354460000000000000000000000000000000000000000000000000000000000600082015250565b6000610eab600383610e64565b9150610eb682610e75565b602082019050919050565b60006020820190508181036000830152610eda81610e9e565b9050919050565b6000604082019050610ef660008301856108e2565b610f036020830184610846565b9392505050565b7f5341000000000000000000000000000000000000000000000000000000000000600082015250565b6000610f40600283610e64565b9150610f4b82610f0a565b602082019050919050565b60006020820190508181036000830152610f6f81610f33565b905091905056fea264697066735822122017cbfa53c7d5584fc2a88e9bb2acbb0c3e9d38ab33e2cdd3f3339912c0d578a164736f6c63430008130033",
  "linkReferences": {},
  "deployedLinkReferences": {}
}